:020000040800F2
:10000000000002206D160008D1050008D305000885
:10001000D5050008D7050008D90500080000000034
:10002000000000000000000000000000DB050008E8
:10003000DD05000800000000DF050008E1050008FC
:10004000BD160008BD160008BD160008BD16000844
:10005000BD160008BD160008BD160008BD16000834
:10006000BD160008BD160008BD160008BD16000824
:10007000BD160008BD160008BD160008BD16000814
:10008000BD160008BD160008BD160008BD16000804
:10009000BD160008BD160008BD160008BD160008F4
:1000A000BD160008BD160008BD160008BD160008E4
:1000B000BD160008BD160008BD160008BD160008D4
:1000C000BD160008BD160008BD160008BD160008C4
:1000D000BD160008BD160008BD160008BD160008B4
:1000E000BD160008BD16000800000000BD1600087F
:1000F000BD160008BD160008BD160008BD16000894
:10010000BD160008BD160008BD160008BD16000883
:10011000BD160008BD160008BD160008BD16000873
:10012000BD160008BD160008BD160008BD16000863
:10013000BD160008BD160008BD160008BD16000853
:10014000BD160008BD1600080000000000000000F9
:10015000BD160008BD160008BD160008BD16000833
:10016000BD160008BD160008BD160008BD16000823
:10017000BD160008BD160008BD16000800000000EE
:10018000BD160008BD160008BD160008BD16000803
:10019000BD160008BD160008BD160008BD160008F3
:1001A000BD160008BD160008BD160008BD160008E3
:1001B000BD160008BD160008BD160008BD160008D3
:1001C000BD160008BD160008BD160008BD160008C3
:1001D000BD160008BD160008BD160008BD160008B3
:1001E000BD160008BD160008BD160008BD160008A3
:1001F000BD160008BD160008BD160008BD16000893
:10020000BD160008BD160008BD160008BD16000882
:10021000BD160008BD160008BD160008BD16000872
:10022000BD160008BD160008BD160008BD16000862
:10023000BD160008BD160008BD160008BD16000852
:10024000BD160008BD160008BD160008BD16000842
:10025000BD160008BD160008BD160008BD16000832
:10026000BD160008BD160008BD160008BD16000822
:10027000BD160008BD160008BD160008BD16000812
:10028000BD160008BD160008BD16000800000000DD
:08029000BD160008BD160008B0
:1002980010B5054C237833B9044B13B10448AFF3B8
:1002A80000800123237010BD100000200000000012
:1002B8001817000808B5034B1BB103490348AFF3EF
:1002C800008008BD00000000140000201817000876
:1002D800F0B58BB00024059406940794089409940B
:1002E8002F4BD3F8E02042F00102C3F8E020D3F806
:1002F800E02002F001020092009AD3F8E02042F0D8
:100308000202C3F8E020D3F8E02002F002020192D2
:10031800019AD3F8E02042F00402C3F8E020D3F8B1
:10032800E02002F004020292029AD3F8E02042F0A0
:100338000802C3F8E020D3F8E02002F00802039294
:10034800039AD3F8E02042F01002C3F8E020D3F873
:10035800E03003F010030493049B124F224610214F
:10036800384601F03DF8104D22464FF400712846FA
:1003780001F036F810230593012606960794089491
:1003880005A9384600F036FF4FF40073059306962A
:100398000794089405A9284600F02CFF0BB0F0BD7F
:1003A80000440258000002580010025870B59EB070
:1003B8004C2200210BA801F0A3F92022002103A858
:1003C80001F09EF9022001F011F800230093314B4F
:1003D800DA6A22F00102DA62DB6A03F001030093B1
:1003E8002D4B9A6942F440429A619B6903F4404359
:1003F8000093009B284B9B6913F4005FFAD0274BAE
:10040800D3F8F42042F00202C3F8F420D3F8F43011
:1004180003F002030193019B002402941E4B9A6986
:1004280042F440429A619B6903F440430293194B9A
:10043800DA6A42F00102DA62DB6A03F0010302932E
:10044800029B02230B9301220E9240250F951493D1
:100458001594042616963C221792189319931A930A
:100468000C231B931C941D940BA800F025F93F2323
:10047800039303230493059408230693079508958B
:100488004FF4806309930A95314603A800F068FD8C
:100498001EB070BD000400580048025800440258BD
:1004A80072B6FEE700B59DB04C22002109A801F004
:1004B80027F92022002101A801F022F9022000F0EA
:1004C80095FF00230093264BDA6A22F00102DA62D4
:1004D800DB6A03F001030093224A936923F4404343
:1004E80043F480439361936903F440430093009B72
:1004F8001C4B9B6913F4005FFAD002230993012275
:100508000C9240220D92129300221392042114910E
:100518003C21159110211691179318930C231993C8
:100528001A921B9209A800F0C7F8A8B93F230193B3
:100538000323029300210391082304934023059386
:1005480006934FF480620792089301A800F008FD13
:1005580020B91DB05DF804FBFFF7A2FFFFF7A0FF6D
:10056800000400580048025838B500F0B1FFFFF702
:1005780099FFFFF7ADFE4FF4FA7000F0E9FF104D58
:1005880000221021284600F02BFF0E4C00224FF4C9
:100598000071204600F024FFFFF784FF4FF4FA7043
:1005A80000F0D6FF01221021284600F019FF012291
:1005B8004FF40071204600F013FFFFF7F7FEDAE76B
:1005C8000000025800100258FEE7FEE7FEE7FEE7CB
:1005D800FEE770477047704708B500F0A7FF08BDF1
:1005E80082B0074BD3F8F42042F00202C3F8F4209B
:1005F800D3F8F43003F002030193019B02B0704773
:10060800004402580649CB6823F4E0631B041B0C22
:10061800000200F4E0600343024A1A43CA607047CC
:1006280000ED00E00000FA0530B4154BDB68C3F3B9
:100638000223C3F10704042C28BF04241D1D062D22
:1006480014D9033B4FF0FF3505FA04F421EA0401FD
:10065800994005FA03F322EA03031943002807DB4C
:100668000901C9B2074B195430BC70470023E9E7A8
:1006780000F00F000901C9B2034B1954F4E700BF99
:1006880000ED00E000E400E014ED00E00138B0F116
:10069800807F0AD2064B5860064AF02182F8231060
:1006A8000020986007221A6070470120704700BF39
:1006B80010E000E000ED00E0002800F0398338B5D4
:1006C8000446036813F0010F25D0A74A136903F005
:1006D8003803926A102B15D0182B0FD06368B3F526
:1006E800803F3FD0002B53D19F4B1A6822F48032B1
:1006F8001A601A6822F480221A6038E002F00302B5
:10070800022AEBD1984B1B6813F4003F03D06368AF
:10071800002B00F00F83236813F0020F00F0A18074
:10072800914A1369926A13F038035AD0182B55D09E
:10073800E368002B00F0DE808B490A6822F019027A
:1007480013430B6000F0FEFE0546874B1B6813F051
:10075800040F40F0AD8000F0F5FE401B0228F4D9EC
:100768000320EEE2804A136843F480331360636821
:100778002BB300F0E7FE05467B4B1B6813F4003FE4
:10078800C9D100F0DFFE401B6428F5D90320D8E268
:10079800B3F5A02F09D0744B1A6822F480321A607E
:1007A8001A6822F480221A60E1E76F4B1A6842F453
:1007B80080221A601A6842F480321A60D7E700F083
:1007C800C1FE0546684B1B6813F4003FA3D000F038
:1007D800B9FE401B6428F5D90320B2E212F0030FDA
:1007E800A6D1614B1B6813F0040F03D0E368002BFC
:1007F80000F0A2825C4A136823F01903E1680B43F6
:10080800136000F09FFE0546574B1B6813F0040F5A
:1008180006D100F097FE401B0228F5D9032090E28C
:1008280000F0AAFE41F20303984212D82269402A36
:1008380007D04D494B6823F47C3343EA02334B60BD
:100848000FE0494A536823F47C3343F40033536080
:1008580007E0454A536823F0FE43216943EA0163F0
:100868005360236813F0100F00F088803E4A136924
:1008780003F03803926A082B54D0182B4ED0E36942
:10088800002B00F0B880384A136843F080031360E7
:1008980000F058FE0546344B1B6813F4807F40F087
:1008A800888000F04FFE401B0228F4D9032048E25C
:1008B80000F062FE41F20303984212D82269402AEE
:1008C80007D029494B6823F47C3343EA02334B6051
:1008D800C7E7254A536823F47C3343F40033536055
:1008E800BFE7214A536823F0FE43216943EA0163C5
:1008F8005360B6E71C4A136823F00103136000F045
:1009080021FE0546184B1B6813F0040FA9D000F010
:1009180019FE401B0228F5D9032012E202F0030257
:10092800012AACD1104B1B6813F4807F03D0E36914
:10093800802B40F0038200F01FFE41F2030398422F
:1009480014D8226A202A07D007494B6823F0F843B5
:1009580043EA82634B6011E0034A536823F0F8438B
:1009680043F08043536009E0004402589A4AD36830
:1009780023F07C53216A43EA0163D360236813F0B0
:10098800080F60D06369002B49D0934A536F43F036
:100998000103536700F0D6FD05468F4B5B6F13F0DC
:1009A800020F50D100F0CEFD401B0228F5D90320DC
:1009B800C7E100F0E1FD41F20303984212D8226A30
:1009C800202A07D084494B6823F0F84343EA82631E
:1009D8004B60D3E7804A536823F0F84343F08043E1
:1009E8005360CBE77C4AD36823F07C53216A43EAFF
:1009F8000163D360C2E7784A136823F08003136069
:100A080000F0A0FD0546744B1B6813F4807FB5D039
:100A180000F098FD401B0228F5D9032091E16E4AA9
:100A2800536F23F00103536700F08CFD05466A4BB2
:100A38005B6F13F0020F06D000F084FD401B022804
:100A4800F5D903207DE1236813F0200F29D0A3698D
:100A58009BB1614A136843F48053136000F072FD40
:100A680005465D4B1B6813F4005F1AD100F06AFD60
:100A7800401B0228F5D9032063E1574A136823F481
:100A88008053136000F05EFD0546534B1B6813F45A
:100A9800005F06D000F056FD401B0228F5D9032060
:100AA8004FE1236813F0040F21D1636A002B00F093
:100AB8004781494A126902F03802182A00F0EE808C
:100AC800022B75D0444A136823F08073136000F03A
:100AD80039FD0446404B1B6813F0007F00F0DC80B2
:100AE80000F030FD001B0228F4D9032029E13B4A1D
:100AF800136843F48073136000F024FD0546374BF8
:100B08001B6813F4807F06D100F01CFD401B64288D
:100B1800F5D9032015E1A368012B0AD00BBB2E4B96
:100B28001A6F22F001021A671A6F22F004021A677C
:100B380004E0294A136F43F001031367A36833B332
:100B480000F000FD0546244B1B6F13F0020FACD1DB
:100B580000F0F8FC401B41F288339842F3D9032097
:100B6800EFE0052B09D01C4B1A6F22F001021A671F
:100B78001A6F22F004021A67E0E7174B1A6F42F067
:100B880004021A671A6F42F001021A67D6E700F0EA
:100B9800D9FC0546104B1B6F13F0020F85D000F0EF
:100BA800D1FC401B41F288339842F3D90320C8E0B6
:100BB800094A136823F08073136000F0C3FC0546EC
:100BC800054B1B6813F0007F0AD000F0BBFC401BEC
:100BD8000228F5D90320B4E000440258004802581E
:100BE8005F4B996A5F4A0A40A16AE06A41EA0011CC
:100BF8000A439A62226B013AC2F30802616B013917
:100C0800490289B20A43A16B0139090401F4FE01C2
:100C18000A43E16B0139090601F0FE410A431A63F0
:100C2800DA6A22F00102DA62596B4F4A0A40A16C73
:100C380042EAC1025A63DA6A22F00C02216C0A43C2
:100C4800DA62DA6A22F00202616C0A43DA62DA6A6C
:100C580042F48032DA62DA6A42F40032DA62DA6A3C
:100C680042F48022DA62DA6A42F00102DA621A6831
:100C780042F080721A6000F065FC0446384B1B682D
:100C880013F0007F06D100F05DFC001B0228F5D9A7
:100C9800032056E0002054E0002052E0304A916AD8
:100CA800106B012B4ED001F00303A26A93424BD183
:100CB800C1F30511E36A994248D1C0F30802236BD6
:100CC800013B9A4244D1C0F34622636B013B9A42EE
:100CD80040D1C0F30642A36B013B9A423CD1C0F31A
:100CE8000660E36B013B984238D11D4B5B6BC3F345
:100CF800CC03A26C9A4201D1002022E0184AD36AA0
:100D080023F00103D36200F01DFC054600F01AFC35
:100D1800A842FBD0124A516B134B0B40A16C43EA1B
:100D2800C1035363D36A43F00103D362002008E090
:100D380001207047012004E0012002E0012000E0CA
:100D4800002038BD0120FCE70120FAE70120F8E780
:100D58000120F6E70120F4E70120F2E70120F0E79F
:100D6800004402580CFCFFFF0700FFFF744B1B698F
:100D780003F03803102B00F0DF80182B10D00BB1D4
:100D8800704870476E4B1B6813F0200F00F0D68038
:100D98006B4B1868C0F3C1006B4B23FA00F0704727
:100DA80010B4674A916A01F00301946AC4F305100C
:100DB800D36A03F00103526BC2F3CC0203FB02F3C4
:100DC80007EE903AF8EE677A14F47C7F00F094808E
:100DD800012966D0022900F09280E1B107EE100ADD
:100DE800F8EE476A9FED596A86EE267A544B1B6BDC
:100DF800C3F3080306EE903AF8EE666A9FED546A6C
:100E080067EE867A76EEA77AF7EE006A77EEA67A2C
:100E180027EE277A61E04A4B1B6813F0200F23D096
:100E280047490A68C2F3C102474BD34007EE103A5C
:100E3800F8EE476A07EE100AB8EE476A86EE867A39
:100E48000B6BC3F3080306EE903AF8EE666A9FED63
:100E5800406A67EE867A76EEA77AF7EE006A77EE52
:100E6800A67A27EE277A38E007EE100AF8EE476AE6
:100E78009FED386A86EE267A314B1B6BC3F3080365
:100E880006EE903AF8EE666A9FED316A67EE867A6A
:100E980076EEA77AF7EE006A77EEA67A27EE277A3B
:100EA8001BE007EE100AF8EE476A9FED286A86EE07
:100EB800267A234B1B6BC3F3080306EE903AF8EE31
:100EC800666A9FED236A67EE867A76EEA77AF7EE72
:100ED800006A77EEA67A27EE277A194B1B6BC3F3C5
:100EE8004623013307EE903AF8EE677AC7EE276A91
:100EF800FCEEE67A17EE900A5DF8044B704707EEB1
:100F0800100AF8EE476A9FED146A86EE267A0C4BB3
:100F18001B6BC3F3080306EE903AF8EE666A9FED82
:100F28000C6A67EE867A76EEA77AF7EE006A77EEB5
:100F3800A67A27EE277AD0E7084870470248704714
:100F48000044025800093D000090D0030024744A70
:100F5800000000390024744C20BCBE4B40787D0151
:100F6800002800F0328170B50D4604469B4B1B6883
:100F780003F00F038B420BD2984A136823F00F0338
:100F88000B431360136803F00F038B4240F01F817B
:100F9800236813F0040F0CD02269914B9B6903F06E
:100FA80070039A4205D98E498B6923F070031A435E
:100FB8008A61236813F0080F0CD06269884BDB69DB
:100FC80003F070039A4205D98549CB6923F0700371
:100FD8001A43CA61236813F0100F0CD0A269804B22
:100FE800DB6903F4E0639A4205D97D49CB6923F4B0
:100FF800E0631A43CA61236813F0200F0CD0E2693A
:10100800774B1B6A03F070039A4205D974490B6A3F
:1010180023F070031A430A62236813F0020F0CD0FE
:10102800E2686F4B9B6903F00F039A4205D96C493C
:101038008B6923F00F031A438A61236813F0010FA9
:1010480041D0674A936923F47063A1680B439361A5
:101058006368022B0AD0032B27D0012B2CD0604ABF
:10106800126812F0040F06D10120ADE0126812F4E4
:10107800003F00F0AE805A490A6922F00702134384
:101088000B6100F05FFA0646554B1B6903F0380305
:101098006268B3EBC20F16D000F054FA801B41F21D
:1010A80088339842F0D903208EE04D4A126812F036
:1010B800007FE0D1012087E0494A126812F4807F5E
:1010C800D9D1012080E0236813F0020F0CD0E26828
:1010D800434B9B6903F00F039A4205D240498B6941
:1010E80023F00F031A438A613C4B1B6803F00F037C
:1010F800AB420AD9394A136823F00F032B43136014
:10110800136803F00F03AB4265D1236813F0040F93
:101118000CD02269324B9B6903F070039A4205D2C6
:101128002F498B6923F070031A438A61236813F0EF
:10113800080F0CD062692A4BDB6903F070039A42EE
:1011480005D22749CB6923F070031A43CA61236883
:1011580013F0100F0CD0A269214BDB6903F4E06394
:101168009A4205D21E49CB6923F4E0631A43CA6147
:10117800236813F0200F0CD0E269194B1B6A03F0A7
:1011880070039A4205D216490B6A23F070031A437A
:101198000A62FFF7EBFD12498B69C3F30323114A77
:1011A800D35C03F01F03D8408B6903F00F03D35CB3
:1011B80003F01F0320FA03F30B4A13600B4B18606C
:1011C8000B4B186800F05CF970BD012070470120D6
:1011D800FAE70120F8E70120F6E700BF00200052F7
:1011E80000440258301700080C00002008000020B6
:1011F80004000020F0B482B000235FE086685F003E
:101208000325BD4026EA0506CD68BD403543856007
:10121800466826EA04064D68C5F300149C4034432A
:1012280044605AE0DD08083550F8257003F00704DB
:10123800A6000F24B44027EA04070C69B4403C43D5
:1012480040F825405DE0092400E00024B4403C4318
:1012580002355F4E46F825404FF0B0442568D44328
:1012680025EA02064F6817F4801F01D042EA0506F6
:101278004FF0B0452E606E6804EA06054F6817F413
:10128800001F01D042EA06054FF0B0467560514D87
:101298006D6804EA05064F6817F4003F01D042EA7A
:1012A80005064C4D6E602D682C404E6816F4803F44
:1012B80001D042EA0504474A146001330A6832FA49
:1012C80003F400F0828001249C402240F5D04D6850
:1012D80005F00305013D012D90D94C6804F0030485
:1012E800032C09D0C5685E000324B44025EA040530
:1012F8008C68B4402C43C4604C6804F00304022C8E
:1013080090D005685E000324B44025EA04054C68C3
:1013180004F00304B4402C4304604C6814F4403FC8
:10132800CBD02D4CD4F8F45045F00205C4F8F45055
:10133800D4F8F44004F002040194019C9D08AE1C0A
:10134800234C54F8267003F00304A6000F24B4407D
:1013580027EA0407214CA0423FF477AF04F58064E4
:10136800A04222D004F58064A04220D004F5806415
:10137800A0421ED004F58064A0421CD004F580640D
:10138800A0421AD004F58064A04218D004F5806405
:10139800A04216D004F58064A04214D004F58064FD
:1013A800A0423FF450AF0A2450E701244EE702243C
:1013B8004CE703244AE7042448E7052446E70624C3
:1013C80044E7072442E7082440E702B0F0BC70472E
:1013D80000040058800000580044025800000258D9
:1013E8000AB18161704709048161704738B50446C4
:1013F800224BDB6803F00703062B07D01F4BDB6883
:1014080003F03F03834236D0012038BD1B4AD3681E
:1014180023F03F030343D36000F094F80546174BCD
:101428005B6813F4005F07D100F08CF8431BB3F539
:101438007A7FF4D90120E8E72E2C18BF1E2C08D09B
:101448002D2C14BF002301231D2C02D00BB9002022
:10145800DBE700F077F80446084BDB6813F4803FBD
:1014680007D100F06FF8001BB0F57A7FF4D901209E
:10147800CBE70020C9E70020C7E700BF00480258B3
:10148800104B1B780BB90120704710B504464FF478
:101498007A70B0FBF3F30C4A1068B0FBF3F0FFF777
:1014A800F5F868B90F2C01D901200AE0002221467D
:1014B8004FF0FF30FFF7B8F8044B1C60002000E045
:1014C800012010BD000000200800002004000020BA
:1014D80010B50320FFF796F8FFF748FC0F498B6912
:1014E800C3F303230E4AD35C03F01F03D8408B6970
:1014F80003F00F03D35C03F01F0320FA03F3094A38
:101508001360094B18600F20FFF7BAFF10B10124D0
:10151800204610BD0446FFF763F8F9E70044025877
:10152800301700080C00002008000020034B1B782F
:10153800034A11680B441360704700BF0000002085
:101548002C000020014B1868704700BF2C000020B9
:1015580038B50446FFF7F6FF0546B4F1FF3F02D061
:10156800044B1B781C44FFF7EDFF401BA042FAD345
:1015780038BD00BF00000020014B1868000C704700
:101588000010005C2B4BD3F8882042F47002C3F89B
:1015980088201A6942F010021A61274B1B6803F071
:1015A8000F03062B06D8244A136823F00F0343F0D1
:1015B80007031360214B1A6842F001021A600022E7
:1015C8001A6119681E4A0A401A601B4B1B6813F0FF
:1015D800080F06D0184A136823F00F0343F00703D7
:1015E8001360164B00229A61DA611A6215499962F2
:1015F8001549D962154919635A639963DA631964FD
:101608005A64196821F4802119601A66104A536ACD
:1016180043F4804353620F4B1A680F4B1340B3F1E6
:10162800005F02D20D4B01221A600D4B43F2D20229
:101638001A60704700ED00E0002000520044025894
:101648007FEDF6EA000202020000FF0180020101BC
:10165800C00000580010005C0000FFFF0881005126
:1016680000400052DFF834D0FFF78CFF0C480D49DA
:101678000D4A002302E0D458C4500433C4188C42E5
:10168800F9D30A4A0A4C002301E013600432A2424B
:10169800FBD300F011F8FEF767FF70470000022047
:1016A800000000201000002048170008100000204B
:1016B80030000020FEE7000070B50D4D0D4C641B96
:1016C800A4100026A64209D10B4D0C4C00F020F8BE
:1016D800641BA4100026A64205D170BD55F8043B32
:1016E80098470136EEE755F8043B98470136F2E78C
:1016F8004017000840170008401700084417000862
:1017080002440346934200D1704703F8011BF9E7EE
:10171800F8B500BFF8BC08BC9E467047F8B500BFD6
:08172800F8BC08BC9E467047A6
:101730000000000001020304010203040607080977
:04174000BD020008DE
:0417440099020008FE
:1017480001000000100000000090D0030090D003BA
:040000050800166D6C
:00000001FF
