:020000040800F2
:1000000000000220D1360008450800084708000813
:10001000490800084B0800084D08000800000000CF
:100020000000000000000000000000004F08000871
:100030005108000800000000530800085508000897
:100040002137000821370008213700082137000830
:100050002137000821370008213700082137000820
:100060002137000821370008213700082137000810
:100070002137000821370008213700082137000800
:1000800021370008213700082137000821370008F0
:1000900021370008213700082137000821370008E0
:1000A00021370008213700082137000821370008D0
:1000B00021370008213700082137000821370008C0
:1000C00021370008213700082137000821370008B0
:1000D00021370008213700082137000821370008A0
:1000E00021370008213700080000000021370008F0
:1000F0002137000821370008213700082137000880
:10010000213700082137000821370008213700086F
:10011000213700082137000821370008213700085F
:10012000213700082137000821370008213700084F
:10013000213700082137000821370008213700083F
:1001400021370008213700080000000000000000EF
:10015000213700082137000821370008213700081F
:10016000213700082137000821370008213700080F
:10017000213700082137000821370008000000005F
:1001800021370008213700082137000821370008EF
:1001900021370008213700082137000821370008DF
:1001A00021370008213700082137000821370008CF
:1001B00021370008213700082137000821370008BF
:1001C00021370008213700082137000821370008AF
:1001D000213700082137000821370008213700089F
:1001E000213700082137000821370008213700088F
:1001F000213700082137000821370008213700087F
:10020000213700082137000821370008213700086E
:10021000213700082137000821370008213700085E
:10022000213700082137000821370008213700084E
:10023000213700082137000821370008213700083E
:10024000213700082137000821370008213700082E
:10025000213700082137000821370008213700081E
:10026000213700082137000821370008213700080E
:1002700021370008213700082137000821370008FE
:10028000213700082137000821370008000000004E
:080290002137000821370008A6
:1002980010B5054C237833B9044B13B10448AFF3B8
:1002A80000800123237010BD100000200000000012
:1002B8007C37000808B5034B1BB103490348AFF36B
:1002C800008008BD00000000140000207C370008F2
:1002D80053B94AB9002908BF00281CBF4FF0FF31A5
:1002E8004FF0FF3000F06EB9ADF1080C6DE904CEA7
:1002F80000F006F8DDF804E0DDE9022304B07047F9
:100308002DE9F047089D04468C46002B40F0838079
:100318008A42174647D9B2FA82F242B1C2F12000A6
:1003280024FA00F09140974040EA010C94404FEACB
:100338001748230CBCFBF8F61FFA87FE08FB16C10A
:1003480043EA014306FB0EF1994209D9FB1806F16D
:10035800FF3080F01981994240F21681023E3B44F9
:100368005B1AA4B2B3FBF8F008FB103344EA034469
:1003780000FB0EFEA64509D93C1900F1FF3380F0B9
:100388000581A64540F2028102383C4440EA064015
:10039800A4EB0E0400261DB1D4400023C5E9004398
:1003A8003146BDE8F08702B9FFDEB2FA82F2002AD0
:1003B80050D1CB1B4FEA174E1FFA87F80126B3FB23
:1003C800FEFC210C0EFB1C3341EA034108FB0CF335
:1003D8008B4207D979180CF1FF3002D28B4200F218
:1003E800E9808446C91AA3B2B1FBFEF00EFB1011D6
:1003F80043EA014408FB00F8A04507D93C1900F17D
:10040800FF3302D2A04500F2D9801846A4EB0804B5
:1004180040EA0C40BFE78B4209D9002D00F0B180BB
:100428000026C5E9000130463146BDE8F087B3FA39
:1004380083F6002E4AD18B4202D3824200F2B88062
:10044800841A61EB030101208C46002DA8D0C5E970
:10045800004CA5E7C2F1200320FA03F6974001FA01
:1004680002F04FEA174ED9403043030CB1FBFEF6B9
:100478001FFA87F80EFB161143EA014306FB08F141
:10048800994204FA02F409D9FB1806F1FF3C80F0FE
:100498008D80994240F28A80023E3B445B1A81B2C9
:1004A800B3FBFEF00EFB103341EA034100FB08F3F7
:1004B8008B4207D9791800F1FF3C73D28B4271D96E
:1004C80002383944CB1A40EA064678E7C6F1200CD0
:1004D80003FA06F422FA0CF31C4320FA0CF701FA8B
:1004E80006F34FEA144E21FA0CF11F433B0CB1FB03
:1004F800FEF91FFA84F80EFB191143EA014109FBC2
:1005080008FA8A4502FA06F200FA06F308D96118D1
:1005180009F1FF3048D28A4546D9A9F10209214498
:10052800A1EB0A01BFB2B1FBFEF00EFB101147EAC6
:10053800014700FB08F8B84507D9E71900F1FF3172
:100548002ED2B8452CD90238274440EA0940A7EBF7
:100558000807A0FB02894F45C64649461AD317D05B
:100568005DB1B3EB0E0267EB010707FA0CFCF24032
:100578004CEA0202F740C5E9002700263146BDE8EB
:10058800F0872E4628460BE70646E9E61846FDE6BC
:100598004345E5D2B8EB020E69EB04010138DFE709
:1005A8000846D2E760468DE78146B9E7664675E7B3
:1005B80030464AE7ACF1020C394413E702383C44B0
:1005C80024E700BF704700BF30B589B0002403940A
:1005D8000494059406940794154BD3F8E02042F050
:1005E8001002C3F8E020D3F8E02002F010020192D4
:1005F800019AD3F8E02042F00102C3F8E020D3F8D2
:10060800E03003F001030293029B0A4D22461021B9
:10061800284602F0FFFE1023039311230493059448
:10062800069403A9284602F0FFFD09B030BD00BFBB
:10063800004402580000025872B6FEE708B5154893
:10064800154B03604FF4E133436000238360C360BC
:1006580003610C2242618361C36103624362836266
:1006680000F069FE70B900210A4800F0DCFE58B9B4
:100678000021084800F0FCFE40B9064800F0B4FE2E
:1006880030B908BDFFF7D8FFFFF7D6FFFFF7D4FF53
:10069800FFF7D2FF2C000020007C004000B59FB07F
:1006A8004C2200210BA803F05DF82022002103A8AA
:1006B80003F058F8022002F0CBFE00230093394BD8
:1006C800DA6A22F00102DA62DB6A03F001030093BE
:1006D800354B9A6942F440429A619B6903F440435E
:1006E8000093009B304B9B6913F4005FFAD02F4BAB
:1006F800D3F8F42042F00202C3F8F420D3F8F4301F
:1007080003F002030193019B00230293264B9A698D
:1007180042F440429A619B6903F440430293214B9F
:10072800DA6A42F00102DA62DB6A03F0010302933B
:10073800029B1D4B9B6913F4005FFAD002230B93B5
:1007480001220E9240220F92149300221592042146
:1007580016913C211791189319931A930C231B9304
:100768001C921D920BA800F0A9FEB0B93F23039379
:100778000323049300230593082306934023079338
:1007880008934FF4806209920A93042103A801F0A8
:10079800E9FA20B91FB05DF804FBFFF74DFFFFF73A
:1007A8004BFF00BF0004005800480258004402589C
:1007B80030B587B002F0BEFEFFF770FF1C4BD3F8D0
:1007C800E02042F00072C3F8E020D3F8E03003F0F4
:1007D80000730093009B002002F022FE00210846CF
:1007E80002F02EFE4FF6FF7300E01346104A12681F
:1007F80012F4004F03D15A1E002BF6DC1346002BCF
:1008080014DBFFF7E1FEFFF719FF01AC094D0FCD2F
:100818000FC42B6823800A23122201A9064800F07E
:10082800BBFC4FF47A7002F0C5FEEEE7FFF704FF59
:1008380000440258943700082C000020FEE7FEE729
:10084800FEE7FEE7FEE770477047704708B502F01D
:100858009FFE08BD82B0074BD3F8F42042F0020295
:10086800C3F8F420D3F8F43003F002030193019B9A
:1008780002B070470044025810B5BAB004460021CF
:1008880035913691379138913991C82202A802F0F2
:1008980069FF2268234B9A4201D03AB010BD022268
:1008A8000023CDE90223202304935A220592022231
:1008B8000692062107910892402209920A93002382
:1008C8000B930123219302A801F0E8FC30BB164BDF
:1008D800D3F8E82042F00042C3F8E820D3F8E82033
:1008E80002F000420092009AD3F8E02042F0100291
:1008F800C3F8E020D3F8E03003F010030193019B24
:100908000323359302233693002337933893082320
:10091800399335A9054802F087FCBEE7FFF78CFE3E
:10092800D5E700BF007C0040004402580010025880
:100938000649CB6823F4E0631B041B0C000200F497
:10094800E0600343024A1A43CA60704700ED00E0C2
:100958000000FA0530B4154BDB68C3F30223C3F17A
:100968000704042C28BF04241D1D062D14D9033B9D
:100978004FF0FF3505FA04F421EA0401994005FA1D
:1009880003F322EA03031943002807DB0901C9B26C
:10099800074B195430BC70470023E9E700F00F00FB
:1009A8000901C9B2034B1954F4E700BF00ED00E098
:1009B80000E400E014ED00E00138B0F1807F0AD2D5
:1009C800064B5860064AF02182F8231000209860F0
:1009D80007221A6070470120704700BF10E000E04E
:1009E80000ED00E0026852E8003F23F4907342E80B
:1009F80000310029F6D1026802F1080353E8001F0C
:100A08000D4B0B40083242E800310029F3D1C36E88
:100A1800012B06D02023C0F88C300023C36643671F
:100A28007047026852E8003F23F0100342E80031A3
:100A38000029F6D1EEE700BFFEFFFFEF2DE9F041F8
:100A480086B0044601688368026913434269134308
:100A5800C26913430868884A024013430B6022683E
:100A6800536823F44053E1680B435360A16922683B
:100A7800824B9A4201D0236A19439068804B034005
:100A88000B4393602268D36A23F00F03616A0B4318
:100A9800D36222687B4B9A4221D07B4B9A4200F06A
:100AA8008C807A4B9A4200F0A280794B9A4200F0EF
:100AB800B580784B9A4200F0C880774B9A4200F094
:100AC800F380764B9A4200F01881754B9A4200F0F9
:100AD8002B816A4B9A4200F03E81802333E0714BB0
:100AE8005B6D03F03803282B65D8DFE813F0290085
:100AF80064006400640064006400640064004C01E5
:100B080064006400640064006400640064002B00F6
:100B180064006400640064006400640064005E00B3
:100B280064006400640064006400640064006000A1
:100B3800640064006400640064006400640062008F
:100B4800012300E008234D498A4200F02E81E06924
:100B5800B0F5004F00F0B081202B00F20982202B65
:100B680000F25D82DFE813F02A0230025B025B02CA
:100B780033025B025B025B0238025B025B025B02D0
:100B88005B025B025B025B023D025B025B025B0293
:100B98005B025B025B025B025B025B025B025B0265
:100BA8005B025B025B025B0249021023CBE7202356
:100BB800C9E74023C7E78023C5E73A4B5B6D03F0DD
:100BC8000703052B11D8DFE813F00600E000080042
:100BD8000A000C000E000023B5E70823B3E7102332
:100BE800B1E72023AFE74023ADE78023ABE72D4BE8
:100BF8005B6D03F00703052B0ED8DFE803F003C88D
:100C08000507090B00239EE708239CE710239AE7B2
:100C1800202398E7402396E7802394E7214B5B6DD8
:100C280003F00703052B0ED8DFE803F003B305072D
:100C3800090B002387E7082385E7102383E7202390
:100C480081E740237FE780237DE7164B5B6D03F048
:100C58000703052B0ED8DFE803F0039E0507090BF1
:100C6800002370E708236EE710236CE720236AE768
:100C7800402368E7802366E7F369FFCF000C00583C
:100C8800FFF4FF11001001400044004000480040FC
:100C9800004C004000500040001401400078004023
:100CA800007C0040004402587E4B5B6D03F0380323
:100CB800282B20D8DFE803F0151F1F1F1F1F1F1F39
:100CC800711F1F1F1F1F1F1F171F1F1F1F1F1F1FE2
:100CD800191F1F1F1F1F1F1F1B1F1F1F1F1F1F1F26
:100CE8001D0001232FE708232DE710232BE72023DE
:100CF80029E7402327E7802325E76A4B5B6D03F04C
:100D08000703052B0ED8DFE803F0034A0507090B94
:100D1800002318E7082316E7102314E7202312E717
:100D2800402310E780230EE75E4B5B6D03F007035B
:100D3800052B0ED8DFE803F003350507090B002360
:100D480001E70823FFE61023FDE62023FBE6402306
:100D5800F9E68023F7E603F50E339B6D03F00703EE
:100D6800052B0ED8DFE803F0031F0507090B022344
:100D7800E9E60823E7E61023E5E62023E3E6402337
:100D8800E1E68023DFE60423DDE60423DBE6042333
:100D9800D9E60423D7E60423D5E60423D3E60423BF
:100DA800D1E60423CFE60423CDE6202B27D8022B57
:100DB800C0F02781023B1E2B00F22581DFE813F0EB
:100DC8005200230158002301230123015D00230160
:100DD80023012301230123012301230162002301AD
:100DE80023012301230123012301230123012301DB
:100DF8002301230123012301230123016E00402B3A
:100E08002ED14FF40040626A274B33F81220B0FB12
:100E1800F2F3656805EB4501994200F2F680B3EB01
:100E2800053F00F2F4804FF0000892B200234146DB
:100E3800FFF74EFA0F0247EA1067060268082A46CB
:100E48004346301847F10001FFF742FAA0F5407217
:100E5800164B9A4200F2DD802368D8604046A2E033
:100E68000120A0E001F0D2FF0028CCD100209AE0B8
:100E780003A801F0DDFF0498F6E7684602F0D6F80B
:100E88000198F1E7074B1B6813F0200F08D0054BBA
:100E98001B68C3F3C1030648D840E5E70548B2E735
:100EA8000348B0E700440258A8370008FFFC0F00C9
:100EB8000090D00300093D00202B15D8202B00F20C
:100EC800AA80DFE803F03238A8A83BA8A8A840A861
:100ED800A8A8A8A8A8A845A8A8A8A8A8A8A8A8A8ED
:100EE800A8A8A8A8A8A85100402B1CD1626A4E4BFC
:100EF80033F81230B0FBF3F06268530803EB40009C
:100F0800B0FBF2F0A0F110024FF6EF739A4200F234
:100F1800848083B223F00F03C0F342001843236890
:100F2800D86000203FE001203DE001F087F800286C
:100F3800DCD1002037E001F093F8F8E703A801F0CE
:100F480077FF0498F3E7684602F070F80198EEE737
:100F5800364B1B6813F0200F08D0344B1B68C3F3C3
:100F6800C1033348D840E2E73248BFE73048BDE71D
:100F7800402B17D14FF40040626A2B4B33F81230E4
:100F8800B0FBF3F0636800EB5300B0FBF3F0A0F1A3
:100F980010024FF6EF739A4243D8236880B2D860A4
:100FA800002000E001200123A4F86A30A4F868308A
:100FB80000236367A36706B0BDE8F08101F03EF83F
:100FC8000028D9D10020EEE701F04AF8F8E703A895
:100FD80001F02EFF0498F3E7684602F027F801981D
:100FE800EEE7124B1B6813F0200F08D00F4B1B685D
:100FF800C3F3C1030E48D840E2E70E48BCE70C48EB
:10100800BAE70120CFE70120CDE70120CBE7012097
:10101800C9E70120C7E70120C5E70120C3E7012090
:10102800C1E70120BFE700BFA83700080044025805
:101038000090D00300093D00836A13F0010F06D029
:101048000268536823F40033C16A0B435360836A10
:1010580013F0020F06D00268536823F48033016B43
:101068000B435360836A13F0040F06D00268536879
:1010780023F48023416B0B435360836A13F0080FFA
:1010880006D00268536823F40043816B0B43536016
:10109800836A13F0100F06D00268936823F4805314
:1010A800C16B0B439360836A13F0200F06D002686C
:1010B800936823F40053016C0B439360836A13F025
:1010C800400F0AD00268536823F48013416C0B4325
:1010D8005360436CB3F5801F0BD0836A13F0800F05
:1010E80006D00268536823F40023C16C0B43536095
:1010F80070470268536823F4C003816C0B43536044
:10110800EBE72DE9F84305460F4616469946DDF804
:1011180020802C68E46937EA04030CBF012400240A
:10112800B44232D1B8F1FF3FF3D002F03DFAA0EB60
:10113800090040452CD8B8F1000F2BD02B681A684D
:1011480012F0040FE5D0DA6912F0080F11D1DA694C
:1011580012F4006FDDD04FF400621A622846FFF7E0
:1011680041FC2023C5F89030002385F88430032003
:101178000CE008241C622846FFF734FCC5F89040B0
:10118800002385F88430012000E00020BDE8F883C2
:101198000320FBE70320F9E72DE9F04182B01E4662
:1011A800D0F88830202B5DD104460D469046B2FA1F
:1011B80082F35B09002908BF01230BB1012052E02B
:1011C800C0F890302123C0F8883002F0EDF90746C6
:1011D800A4F85480A4F85680A368B3F5805F02D0C1
:1011E8004FF0000816E0236943B34FF0000811E000
:1011F8002023C4F88830032035E038F8023B226801
:10120800C3F308039362B4F8562092B2013A92B23B
:10121800A4F85620B4F856309BB293B100963B46DA
:10122800002280212046FFF76CFF0028E0D1002D26
:10123800E3D015F8012B23689A62E4E7A846002555
:10124800E8E700963B46002240212046FFF759FF79
:1012580018B92023C4F8883005E02023C4F8883062
:10126800032000E0022002B0BDE8F08130B583B071
:1012780004460023C0F8903002F096F9054623682A
:101288001B6813F0080F10D123681B6813F0040FB4
:1012980028D12023C4F88830C4F88C300020E066B8
:1012A800206784F8840003B030BD6FF07E4300935C
:1012B800034600224FF400112046FFF722FF0028C2
:1012C800E2D0226852E8003F23F0800342E8003170
:1012D8000029F6D12023C4F88830002384F884300C
:1012E8000320E0E76FF07E4300932B4600224FF483
:1012F80080012046FFF705FF0028CAD0226852E87F
:10130800003F23F4907342E800310029F6D12268A7
:1013180002F1080353E8003F23F00103083242E8D2
:1013280000310029F3D12023C4F88C30002384F83D
:1013380084300320B7E778B310B50446D0F8883076
:101348000BB32423C4F888302268136823F0010300
:1013580013602046FFF772FB012813D0A36ABBB9BC
:101368002268536823F4904353602268936823F0FB
:101378002A0393602268136843F001031360204630
:10138800FFF774FF10BD80F88430FFF775FAD8E7CF
:101398002046FFF751FEE3E701207047436E2BB963
:1013A8000123A0F86A30A0F86830704730B40368A9
:1013B8009A68C2F342629968490F094D6B5C1B0138
:1013C800084C615C93FBF1F3A0F86A30AB5C1B013D
:1013D800A25C93FBF2F3A0F8683030BC704700BF02
:1013E800C8370008C037000890F88430012B18D09F
:1013F800012380F884302423C0F8883003681A68F1
:10140800196821F00101196022F000520023436697
:1014180001680A602022C0F8882080F884301846C5
:1014280070470220704738B590F88430012B1DD0E2
:101438000446012380F884302423C0F888300368E8
:101448001D681A6822F001021A600268936823F086
:10145800604319439160FFF7A1FF23681D602023B3
:10146800C4F88830002084F8840038BD0220FCE7E6
:1014780038B590F88430012B1DD00446012380F83C
:1014880084302423C0F8883003681D681A6822F065
:1014980001021A600268936823F06063194391603F
:1014A800FFF77CFF23681D602023C4F888300020E4
:1014B80084F8840038BD0220FCE70000002800F012
:1014C800398338B50446036813F0010F25D0A74ABD
:1014D800136903F03803926A102B15D0182B0FD01C
:1014E8006368B3F5803F3FD0002B53D19F4B1A68F8
:1014F80022F480321A601A6822F480221A6038E0D6
:1015080002F00302022AEBD1984B1B6813F4003F48
:1015180003D06368002B00F00F83236813F0020FD9
:1015280000F0A180914A1369926A13F038035AD0E7
:10153800182B55D0E368002B00F0DE808B490A6831
:1015480022F0190213430B6002F02EF80546874B70
:101558001B6813F0040F40F0AD8002F025F8401B23
:101568000228F4D90320EEE2804A136843F480335A
:10157800136063682BB302F017F805467B4B1B68B2
:1015880013F4003FC9D102F00FF8401B6428F5D9C5
:101598000320D8E2B3F5A02F09D0744B1A6822F4BF
:1015A80080321A601A6822F480221A60E1E76F4BD1
:1015B8001A6842F480221A601A6842F480321A606B
:1015C800D7E701F0F1FF0546684B1B6813F4003FAD
:1015D800A3D001F0E9FF401B6428F5D90320B2E24B
:1015E80012F0030FA6D1614B1B6813F0040F03D050
:1015F800E368002B00F0A2825C4A136823F0190309
:10160800E1680B43136001F0CFFF0546574B1B6899
:1016180013F0040F06D101F0C7FF401B0228F5D9CB
:10162800032090E201F0DAFF41F20303984212D856
:101638002269402A07D04D494B6823F47C3343EA9A
:1016480002334B600FE0494A536823F47C3343F478
:101658000033536007E0454A536823F0FE4321698D
:1016680043EA01635360236813F0100F00F0888089
:101678003E4A136903F03803926A082B54D0182B9A
:101688004ED0E369002B00F0B880384A136843F065
:101698008003136001F088FF0546344B1B6813F480
:1016A800807F40F0888001F07FFF401B0228F4D93A
:1016B800032048E201F092FF41F20303984212D856
:1016C8002269402A07D029494B6823F47C3343EA2E
:1016D80002334B60C7E7254A536823F47C3343F44D
:1016E80000335360BFE7214A536823F0FE43216962
:1016F80043EA01635360B6E71C4A136823F0010309
:10170800136001F051FF0546184B1B6813F0040FD6
:10171800A9D001F049FF401B0228F5D9032012E2A5
:1017280002F00302012AACD1104B1B6813F4807F2E
:1017380003D0E369802B40F0038201F04FFF41F2B0
:101748000303984214D8226A202A07D007494B6815
:1017580023F0F84343EA82634B6011E0034A53687D
:1017680023F0F84343F08043536009E000440258F3
:101778009A4AD36823F07C53216A43EA0163D36011
:10178800236813F0080F60D06369002B49D0934A8F
:10179800536F43F00103536701F006FF05468F4B73
:1017A8005B6F13F0020F50D101F0FEFE401B0228C0
:1017B800F5D90320C7E101F011FF41F20303984274
:1017C80012D8226A202A07D084494B6823F0F843AC
:1017D80043EA82634B60D3E7804A536823F0F843B7
:1017E80043F080435360CBE77C4AD36823F07C53B3
:1017F800216A43EA0163D360C2E7784A136823F099
:101808008003136001F0D0FE0546744B1B6813F487
:10181800807FB5D001F0C8FE401B0228F5D903200F
:1018280091E16E4A536F23F00103536701F0BCFE48
:1018380005466A4B5B6F13F0020F06D001F0B4FE49
:10184800401B0228F5D903207DE1236813F0200FFF
:1018580029D0A3699BB1614A136843F4805313608C
:1018680001F0A2FE05465D4B1B6813F4005F1AD118
:1018780001F09AFE401B0228F5D9032063E1574A7C
:10188800136823F48053136001F08EFE0546534B12
:101898001B6813F4005F06D001F086FE401B022887
:1018A800F5D903204FE1236813F0040F21D1636AAF
:1018B800002B00F04781494A126902F03802182AC1
:1018C80000F0EE80022B75D0444A136823F0807331
:1018D800136001F069FE0446404B1B6813F0007F5B
:1018E80000F0DC8001F060FE001B0228F4D9032020
:1018F80029E13B4A136843F48073136001F054FEF6
:101908000546374B1B6813F4807F06D101F04CFE67
:10191800401B6428F5D9032015E1A368012B0AD0E0
:101928000BBB2E4B1A6F22F001021A671A6F22F0B6
:1019380004021A6704E0294A136F43F0010313678E
:10194800A36833B301F030FE0546244B1B6F13F038
:10195800020FACD101F028FE401B41F288339842B7
:10196800F3D90320EFE0052B09D01C4B1A6F22F0A6
:1019780001021A671A6F22F004021A67E0E7174B90
:101988001A6F42F004021A671A6F42F001021A67CE
:10199800D6E701F009FE0546104B1B6F13F0020F46
:1019A80085D001F001FE401B41F288339842F3D9FB
:1019B8000320C8E0094A136823F08073136001F01C
:1019C800F3FD0546054B1B6813F0007F0AD001F0B4
:1019D800EBFD401B0228F5D90320B4E0004402586F
:1019E800004802585F4B996A5F4A0A40A16AE06A58
:1019F80041EA00110A439A62226B013AC2F30802D3
:101A0800616B0139490289B20A43A16B01390904A2
:101A180001F4FE010A43E16B0139090601F0FE41B8
:101A28000A431A63DA6A22F00102DA62596B4F4AF2
:101A38000A40A16C42EAC1025A63DA6A22F00C0237
:101A4800216C0A43DA62DA6A22F00202616C0A4304
:101A5800DA62DA6A42F48032DA62DA6A42F400322E
:101A6800DA62DA6A42F48022DA62DA6A42F0010261
:101A7800DA621A6842F080721A6001F095FD044635
:101A8800384B1B6813F0007F06D101F08DFD001B59
:101A98000228F5D9032056E0002054E0002052E047
:101AA800304A916A106B012B4ED001F00303A26AF1
:101AB80093424BD1C1F30511E36A994248D1C0F36F
:101AC8000802236B013B9A4244D1C0F34622636B60
:101AD800013B9A4240D1C0F30642A36B013B9A42B4
:101AE8003CD1C0F30660E36B013B984238D11D4BF3
:101AF8005B6BC3F3CC03A26C9A4201D1002022E0B5
:101B0800184AD36A23F00103D36201F04DFD05465C
:101B180001F04AFDA842FBD0124A516B134B0B400F
:101B2800A16C43EAC1035363D36A43F00103D36250
:101B3800002008E001207047012004E0012002E0B5
:101B4800012000E0002038BD0120FCE70120FAE771
:101B58000120F8E70120F6E70120F4E70120F2E789
:101B68000120F0E7004402580CFCFFFF0700FFFFCC
:101B7800744B1B6903F03803102B00F0DF80182B1F
:101B880010D00BB1704870476E4B1B6813F0200FD4
:101B980000F0D6806B4B1868C0F3C1006B4B23FA7A
:101BA80000F0704710B4674A916A01F00301946A23
:101BB800C4F30510D36A03F00103526BC2F3CC02DD
:101BC80003FB02F307EE903AF8EE677A14F47C7F91
:101BD80000F09480012966D0022900F09280E1B1DA
:101BE80007EE100AF8EE476A9FED596A86EE267AE4
:101BF800544B1B6BC3F3080306EE903AF8EE666A83
:101C08009FED546A67EE867A76EEA77AF7EE006A59
:101C180077EEA67A27EE277A61E04A4B1B6813F025
:101C2800200F23D047490A68C2F3C102474BD3406B
:101C380007EE103AF8EE476A07EE100AB8EE476A60
:101C480086EE867A0B6BC3F3080306EE903AF8EE3D
:101C5800666A9FED406A67EE867A76EEA77AF7EEB7
:101C6800006A77EEA67A27EE277A38E007EE100AA0
:101C7800F8EE476A9FED386A86EE267A314B1B6B81
:101C8800C3F3080306EE903AF8EE666A9FED316AF0
:101C980067EE867A76EEA77AF7EE006A77EEA67A8E
:101CA80027EE277A1BE007EE100AF8EE476A9FED49
:101CB800286A86EE267A234B1B6BC3F3080306EECD
:101CC800903AF8EE666A9FED236A67EE867A76EEBA
:101CD800A77AF7EE006A77EEA67A27EE277A194BED
:101CE8001B6BC3F34623013307EE903AF8EE677A8D
:101CF800C7EE276AFCEEE67A17EE900A5DF8044B09
:101D0800704707EE100AF8EE476A9FED146A86EEF0
:101D1800267A0C4B1B6BC3F3080306EE903AF8EED9
:101D2800666A9FED0C6A67EE867A76EEA77AF7EE1A
:101D3800006A77EEA67A27EE277AD0E70848704738
:101D4800024870470044025800093D000090D00343
:101D58000024744A000000390024744C20BCBE4B97
:101D680040787D01002800F0328170B50D460446A8
:101D78009B4B1B6803F00F038B420BD2984A1368E6
:101D880023F00F030B431360136803F00F038B4218
:101D980040F01F81236813F0040F0CD02269914B87
:101DA8009B6903F070039A4205D98E498B6923F029
:101DB80070031A438A61236813F0080F0CD0626914
:101DC800884BDB6903F070039A4205D98549CB69D2
:101DD80023F070031A43CA61236813F0100F0CD064
:101DE800A269804BDB6903F4E0639A4205D97D4917
:101DF800CB6923F4E0631A43CA61236813F0200F08
:101E08000CD0E269774B1B6A03F070039A4205D93C
:101E180074490B6A23F070031A430A62236813F0AB
:101E2800020F0CD0E2686F4B9B6903F00F039A42D4
:101E380005D96C498B6923F00F031A438A6123681B
:101E480013F0010F41D0674A936923F47063A168C6
:101E58000B4393616368022B0AD0032B27D0012B15
:101E68002CD0604A126812F0040F06D10120ADE0B0
:101E7800126812F4003F00F0AE805A490A6922F055
:101E8800070213430B6101F08FFB0646554B1B6994
:101E980003F038036268B3EBC20F16D001F084FB7D
:101EA800801B41F288339842F0D903208EE04D4AD6
:101EB800126812F0007FE0D1012087E0494A1268D9
:101EC80012F4807FD9D1012080E0236813F0020F3B
:101ED8000CD0E268434B9B6903F00F039A4205D28A
:101EE80040498B6923F00F031A438A613C4B1B68F6
:101EF80003F00F03AB420AD9394A136823F00F03E2
:101F08002B431360136803F00F03AB4265D12368BA
:101F180013F0040F0CD02269324B9B6903F0700355
:101F28009A4205D22F498B6923F070031A438A61BC
:101F3800236813F0080F0CD062692A4BDB6903F0A1
:101F480070039A4205D22749CB6923F070031A43DC
:101F5800CA61236813F0100F0CD0A269214BDB690A
:101F680003F4E0639A4205D21E49CB6923F4E06387
:101F78001A43CA61236813F0200F0CD0E269194B89
:101F88001B6A03F070039A4205D216490B6A23F0C4
:101F980070031A430A62FFF7EBFD12498B69C3F31A
:101FA8000323114AD35C03F01F03D8408B6903F065
:101FB8000F03D35C03F01F0320FA03F30B4A1360EB
:101FC8000B4B18600B4B186801F08CFA70BD0120A0
:101FD80070470120FAE70120F8E70120F6E700BF83
:101FE8000020005200440258D03700080C0000209E
:101FF800080000200400002008B5FFF7B9FD0B4ACF
:102008009369C3F303230A49CB5C03F01F0320FA47
:1020180003F3926902F00F02885C00F01F0023FAB4
:1020280000F0044A1060044A136008BD00440258D6
:10203800D03700080C0000200800002008B5FFF782
:10204800DBFF054BDB69C3F30213044AD35C03F0DF
:102058001F03D84008BD00BF00440258D03700080D
:1020680008B5FFF7C9FF054BDB69C3F30223044A30
:10207800D35C03F01F03D84008BD00BF00440258DA
:10208800D0370008404B9B6A03F00303032B79D039
:1020980070B505460E463C4A136823F0806313600A
:1020A80001F082FA0446384B1B6813F0006F06D023
:1020B80001F07AFA031B022BF5D9032070BD324BCD
:1020C8009A6A22F47C32296842EA01329A626A6882
:1020D800013AC2F30802A9680139490289B20A43E0
:1020E800E9680139090401F4FE010A432969013943
:1020F800090601F0FE410A439A63DA6A22F0C00237
:1021080069690A43DA62DA6A22F02002A9690A4395
:10211800DA62DA6A22F01002DA62D96B1B4A0A40E4
:10212800E96942EAC102DA63DA6A42F01002DA6265
:10213800C6B91A46DB6A43F40023D362124A13680D
:1021480043F08063136001F02FFA04460E4B1B68BE
:1021580013F0006F14D101F027FA001B0228F5D9FB
:102168000320ABE7012E05D0074AD36A43F40013D6
:10217800D362E3E7044AD36A43F48013D362DDE70A
:1021880000209BE701207047004402580700FFFF2A
:10219800404B9B6A03F00303032B79D070B50546C7
:1021A8000E463C4A136823F08053136001F0FCF993
:1021B8000446384B1B6813F0005F06D001F0F4F9B1
:1021C800031B022BF5D9032070BD324B9A6A22F00B
:1021D8007C72296842EA01529A626A68013AC2F33B
:1021E8000802A9680139490289B20A43E968013934
:1021F800090401F4FE010A4329690139090601F0BD
:10220800FE410A431A64DA6A22F4406269690A43A1
:10221800DA62DA6A22F40072A9690A43DA62DA6ACF
:1022280022F48072DA62596C1B4A0A40E96942EA70
:10223800C1025A64DA6A42F48072DA62C6B91A468E
:10224800DB6A43F48003D362124A136843F0805375
:10225800136001F0A9F904460E4B1B6813F0005FE8
:1022680014D101F0A1F9001B0228F5D90320ABE72E
:10227800012E05D0074AD36A43F08073D362E3E79F
:10228800044AD36A43F40003D362DDE700209BE7E6
:1022980001207047004402580700FFFFF8B50446C4
:1022A800016801F000620023134330D0C36EB3F518
:1022B800001F26D00ED8EBB1B3F5801F07D102213D
:1022C8000830FFF7DFFE054645B12E4621E001261E
:1022D80035461EE0B3F5401F09D100259F4A136D0E
:1022E80023F44013E16E0B431365002611E0012629
:1022F80035460EE0994AD36A43F40033D362002589
:10230800ECE702212830FFF743FF0546DCE700260B
:102318003546216801F480720023134314D0E36D1D
:10232800042B34D8DFE803F003252C0808008B4A77
:10233800D36A43F40033D36265BB884A136D23F034
:102348000703E16D0B431365216801F40072002354
:10235800134331D0236E802B4FD020D8002B46D08A
:10236800402B19D1002104F10800FFF78BFE054628
:102378001AE0002104F10800FFF784FE0546DBE7B8
:10238800002104F12800FFF703FF0546D4E70126E2
:102398003546D9E72E46D7E7012635460CE0C02B4F
:1023A80002D0B3F5807F1FD175BB6C4A136D23F43F
:1023B800E073216E0B431365216801F480620023EA
:1023C800134335D0D4F8AC30B3F5800F51D020D8B2
:1023D800002B48D0B3F5001F18D1002104F10800E4
:1023E800FFF750FE05461AE001263546E4E75B4A4A
:1023F800D36A43F40033D362D6E7002104F12800FE
:10240800FFF7C6FE0546CFE72E46D5E70126354637
:102418000EE0B3F5C00F02D0B3F5000F20D17DBB9D
:102428004E4A936D23F46003D4F8AC100B439365C4
:10243800216801F400620023134336D0D4F8B03089
:10244800B3F1007F56D020D8002B4DD0B3F1807F58
:1024580018D1002104F10800FFF714FE05461AE020
:1024680001263546E4E73D4AD36A43F40033D36294
:10247800D5E7002104F12800FFF78AFE0546CEE7DC
:102488002E46D5E7012635460FE0B3F1407F02D04E
:10249800B3F1806F25D1002D33D1304A936D23F0ED
:1024A800E063D4F8B0100B439365216801F0007223
:1024B800002313432ED0E36C202B42D026D833B10F
:1024C800102B20D1254AD36A43F40033D362002D60
:1024D8003ED1224AD36C23F03003E16C0B43D36422
:1024E80018E001263546E0E71C4AD36A43F4003376
:1024F800D362D0E7002104F12800FFF749FE054622
:10250800C9E72E46D1E70126354603E0302BDED059
:1025180001263546216801F48052002313432ED04A
:10252800636EB3F5005F52D01AD8002B49D0B3F5CB
:10253800805F0FD1002104F10800FFF7A3FD0546D5
:1025480014E0022104F10800FFF79CFD0546BEE7F0
:102558002E46DFE70126354611E000BF0044025849
:10256800B3F5405F02D0B3F5804F27D1002D35D1A8
:102578008D4A136D23F4E043616E0B4313652168A4
:1025880001F400520023134338D0A36EB3F5003F83
:1025980055D028D843B1B3F5803F21D1012104F1AA
:1025A8000800FFF76FFD0546002D4FD17E4A136DD9
:1025B80023F4E023A16E0B4313651FE00126354683
:1025C800DDE7794AD36A43F40033D362CEE70021CA
:1025D80004F12800FFF7DCFD0546C7E72E46CEE7E5
:1025E800012635460AE0B3F5802FDDD0B3F5A02FDC
:1025F800DAD0B3F5403FD7D001263546216801F43B
:1026080080420023134331D0D4F8B430B3F1005FD3
:1026180046D020D843B1B3F1805F19D1012104F12C
:102628000800FFF72FFD0546002D40D15E4A936D47
:1026380023F0E043D4F8B4100B43936516E001216E
:1026480004F12800FFF7A4FD0546ADE72E46D5E7BF
:10265800012635460AE0B3F1804FE5D0B3F1A04F2B
:10266800E2D0B3F1405FDFD001263546216801F0A2
:102678008062002313431ED0236D43B1B3F5807FDE
:1026880017D1012104F10800FFF7FCFC05467DBBCA
:10269800454AD36C23F48073216D0B43D3640AE05D
:1026A800012104F12800FFF773FD0546BCE72E461B
:1026B800DCE701263546216801F400420023134374
:1026C80009D0636FB3F1805F14D0B3F1005F1FD0FE
:1026D800ABB101263546216801F08072002313430F
:1026E8002DD0A36C032B5AD8DFE803F0201B52200F
:1026F8002E46E0E72C4AD36A43F40033D36275B917
:10270800294A136D23F04053616F0B431365E2E7C9
:10271800012104F10800FFF7B5FC0546EFE72E4656
:10272800D9E7214AD36A43F40033D362002D39D163
:102738001D4AD36C23F00303A16C0B43D3642168B7
:1027480001F480020023134330D1216801F0010213
:102758000023134300F0A780D4F88030282B00F220
:10276800A080DFE803F08D9E9E9E9E9E9E9E879E83
:102778009E9E9E9E9E9E979E9E9E9E9E9E9E8D9E89
:102788009E9E9E9E9E9E8D9E9E9E9E9E9E9E8D0021
:10279800022104F10800FFF775FC0546C6E701268B
:1027A8003546CCE72E46CAE700440258AD4A1368BE
:1027B80043F48073136000F0F7FE0746A94B1B68CB
:1027C80013F4807F05D100F0EFFEC01B6428F5D913
:1027D8000325002D4AD1A44B1B6FD4F8B8205340D1
:1027E80013F4407F0CD0A04B1A6F22F44072196F7B
:1027F80041F480311967196F21F4803119671A671C
:10280800D4F8B830B3F5807F15D08DBBD4F8B83084
:1028180003F44072B2F5407F1ED0934A136923F443
:102828007C53136190490B6FD4F8B820C2F30B02A4
:1028380013430B6789E700F0B7FE07468A4B1B6F07
:1028480013F0020FE1D100F0AFFEC01B41F2883354
:102858009842F3D90325D8E78348026922F47C52C9
:10286800824901EA131313430361DBE72E466CE741
:102878002E466AE7012104F10800FFF703FC05462C
:10288800FDB9794A536D23F03803D4F880100B430F
:10289800536508E0012104F12800FFF779FC05469B
:1028A800EEE701263546216801F0020200231343B2
:1028B80017D0E36F052B2AD8DFE803F00B05220BAE
:1028C8000B0B2E46EFE7012104F10800FFF7DAFBB6
:1028D8000546FDB9644A536D23F00703E16F0B43C6
:1028E8005365216801F004020023134323D0D4F870
:1028F8009830052B47D8DFE803F0150F3F1515155D
:10290800012104F12800FFF743FC0546E1E7012611
:102918003546E6E72E46E4E7012104F10800FFF713
:10292800B1FB054695BB504A936D23F00703D4F8D5
:1029380098100B439365216801F02002002313438C
:1029480034D0D4F89430B3F1005F50D023D843B1D9
:10295800B3F1805F1CD1002104F10800FFF792FB5E
:102968000546002D4AD1404A536D23F0E043D4F880
:1029780094100B43536519E0012104F12800FFF777
:1029880007FC0546CEE701263546D4E72E46D2E7B2
:10299800012635460AE0B3F1804FE2D0B3F1A04FEB
:1029A800DFD0B3F1405FDCD001263546216801F065
:1029B80040020023134331D0D4F8A030B3F5006FA0
:1029C80056D020D843B1B3F5806F19D1002104F156
:1029D8000800FFF757FB0546002D50D1224A936D9A
:1029E80023F4E053D4F8A0100B43936516E00221BA
:1029F80004F12800FFF7CCFB0546B2E72E46D5E7E1
:102A0800012635460AE0B3F5805FE5D0B3F5A05F4F
:102A1800E2D0B3F5406FDFD001263546216801F0DA
:102A28008002002313433AD0D4F8A430B3F5804F82
:102A380000F0BA8028D843B1B3F5005F21D1002156
:102A480004F10800FFF71EFB0546002D40F0B38097
:102A5800054A936D23F46043D4F8A4100B4393659F
:102A68001DE000BF0048025800440258CFFFFF0095
:102A7800022104F12800FFF78BFB0546ACE72E4640
:102A8800CCE7012635460AE0B3F5004FDDD0B3F5B3
:102A9800204FDAD0B3F5C04FD7D00126354621688C
:102AA80001F00802002313430DD0D4F88830B3F5A1
:102AB800805F00F08280B44A536D23F44053D4F809
:102AC80088100B435365216801F01002002313435B
:102AD8000CD0D4F89C30B3F5807F78D0AA4A936D97
:102AE80023F44073D4F89C100B439365216801F4D8
:102AF8000022002313430BD0D4F8A830B3F5803F4D
:102B08007FD0B3F5003F72D0002B6AD0012635463E
:102B1800216801F48022002313430DD0D4F88C30AF
:102B2800B3F5001F00F08580B3F5401F77D0B3F5EB
:102B3800801F6FD001263546216801F480320023BA
:102B4800134308D0636D002B7CD0B3F5803F00F0B1
:102B5800878001263546216801F00052002313437F
:102B680040F08780216801F400320023134300F00D
:102B78008D80D4F88430B3F5807F00F0078140F26F
:102B88008280B3F5007F03D0B3F5407F40F0F98031
:102B9800002D40F001817C4A536D23F44073D4F832
:102BA80084100B43536571E0022104F12800FFF7FC
:102BB800EFFA054649E72E4671E7022104F128009D
:102BC800FFF7E6FA00283FF476AF012673E7022103
:102BD80004F12800FFF7DCFA00283FF47FAF012654
:102BE8007CE7002104F10800FFF74CFA05467DB99F
:102BF800654A936D23F44033D4F8A8100B439365CA
:102C080086E7022104F12800FFF7C2FA0546EEE73D
:102C18002E467DE75C4AD36A43F40033D3627DB91C
:102C2800594A536D23F44013D4F88C100B43536561
:102C380082E7012104F12800FFF7AAFA0546EEE72A
:102C48002E4679E7504AD36A43F40033D36275B904
:102C58004D4AD36C23F48033616D0B43D3647AE718
:102C6800022104F10800FFF70DFA0546EFE72E46AA
:102C780071E7022104F12800FFF78AFA00283FF4DF
:102C880071AF01266EE7002B82D00126216801F47E
:102C980080120023134306D03B4A136D23F00043F0
:102CA800A16F0B431365216801F080520023134381
:102CB80007D0354A136923F48043D4F8BC100B437A
:102CC8001361216801F400120023134306D02E4A31
:102CD800136D23F08073216F0B431365216801F096
:102CE80080420023134309D0274B1A6922F400427B
:102CF8001A611A69D4F8C0100A431A61216801F0F0
:102D080000420023134306D01F4AD36C23F04053DC
:102D1800A16D0B43D364216801F40002002313431F
:102D280007D0194A536D23F44003D4F890100B438D
:102D380053656168002201F0010313432ED16168D5
:102D4800002201F00203134331D16168002201F02F
:102D58000403134334D16168002201F008031343CC
:102D680037D16168002201F0100313433AD161683A
:102D7800002201F0200313433DD106B1012630465D
:102D8800F8BD012682E700BF004402581E4AD36AF4
:102D980043F40033D362FBE62E4677E7002104F1C3
:102DA8000800FFF76FF90028C9D00646C7E70121D8
:102DB80004F10800FFF766F90028C6D00646C4E704
:102DC800022104F10800FFF75DF90028C3D0064688
:102DD800C1E7002104F12800FFF7DAF90028C0D084
:102DE8000646BEE7012104F12800FFF7D1F90028C3
:102DF800BDD00646BBE7022104F12800FFF7C8F959
:102E08000028BAD00646B8E70044025808B5FFF7CC
:102E1800F3F8054B1B6AC3F30213044AD35C03F0AF
:102E28001F03D84008BD00BF00440258D03700082F
:102E380030B4784A916A946AC4F30535D36AC3F307
:102E48000013D26BC2F3CC0203FB02F314F47C3FF1
:102E580000F0DA8001F0030107EE903AF8EE677AA5
:102E6800012966D0022900F0B280E1B107EE105ABC
:102E7800B8EE477A9FED686AC6EE076A654B9B6BAA
:102E8800C3F3080307EE103AB8EE477A9FED636A7A
:102E980067EE867A77EE277AB7EE007A77EE877A4A
:102EA80066EEA76A61E05B4B1B6813F0200F23D026
:102EB80058490A68C2F3C102594BD34007EE103A89
:102EC800B8EE477A06EE905AB8EE666AC7EE066A1A
:102ED8008B6BC3F3080307EE103AB8EE477A9FED01
:102EE8004F6A67EE867A77EE277AB7EE007A77EE42
:102EF800877A66EEA76A38E007EE105AB8EE477A86
:102F08009FED486AC6EE076A424B9B6BC3F3080302
:102F180007EE103AB8EE477A9FED406A67EE867A78
:102F280077EE277AB7EE007A77EE877A66EEA76AA9
:102F38001BE007EE105AB8EE477A9FED376AC6EEE7
:102F4800076A344B9B6BC3F3080307EE103AB8EEDD
:102F5800477A9FED326A67EE867A77EE277AB7EE80
:102F6800007A77EE877A66EEA76A2A4A936BC3F3EC
:102F7800462307EE103AB8EE477AB7EE006A37EE06
:102F8800067AC6EE877AFCEEE77AC0ED007A936B94
:102F9800C3F3064307EE103AB8EE477A37EE067ADF
:102FA800C6EE877AFCEEE77AC0ED017A936BC3F33D
:102FB800066307EE903AF8EE677A77EE867A86EE41
:102FC800A77ABCEEC77A80ED027A30BC704707EE6C
:102FD800105AB8EE477A9FED146AC6EE076A0D4B91
:102FE8009B6BC3F3080307EE103AB8EE477A9FEDE0
:102FF8000B6A67EE867A77EE277AB7EE007A77EE75
:10300800877A66EEA76AB0E70023036043608360AF
:10301800DBE700BF004402580024744A000000396E
:103028000090D0030024744C20BCBE4B30B4784AC6
:10303800916A946AC4F30555D36AC3F30023526CAA
:10304800C2F3CC0203FB02F314F07C7F00F0DA80B9
:1030580001F0030107EE903AF8EE677A012966D08D
:10306800022900F0B280E1B107EE105AB8EE477AB3
:103078009FED686AC6EE076A654B1B6CC3F30803CD
:1030880007EE103AB8EE477A9FED636A67EE867AE4
:1030980077EE277AB7EE007A77EE877A66EEA76A38
:1030A80061E05B4B1B6813F0200F23D058490A6876
:1030B800C2F3C102594BD34007EE103AB8EE477A33
:1030C80006EE905AB8EE666AC7EE066A0B6CC3F352
:1030D800080307EE103AB8EE477A9FED4F6A67EE9D
:1030E800867A77EE277AB7EE007A77EE877A66EEF9
:1030F800A76A38E007EE105AB8EE477A9FED486A9B
:10310800C6EE076A424B1B6CC3F3080307EE103A7E
:10311800B8EE477A9FED406A67EE867A77EE277AAF
:10312800B7EE007A77EE877A66EEA76A1BE007EEBD
:10313800105AB8EE477A9FED376AC6EE076A344BE5
:103148001B6CC3F3080307EE103AB8EE477A9FEDFD
:10315800326A67EE867A77EE277AB7EE007A77EEEC
:10316800877A66EEA76A2A4A136CC3F3462307EEEA
:10317800103AB8EE477AB7EE006A37EE067AC6EE2E
:10318800877AFCEEE77AC0ED007A136CC3F3064346
:1031980007EE103AB8EE477A37EE067AC6EE877A27
:1031A800FCEEE77AC0ED017A136CC3F3066307EE11
:1031B800903AF8EE677A77EE867A86EEA77ABCEED2
:1031C800C77A80ED027A30BC704707EE105AB8EE25
:1031D800477A9FED146AC6EE076A0D4B1B6CC3F362
:1031E800080307EE103AB8EE477A9FED0B6A67EED0
:1031F800867A77EE277AB7EE007A77EE877A66EEE8
:10320800A76AB0E70023036043608360DBE700BF81
:10321800004402580024744A000000390090D0038A
:103228000024744C20BCBE4BF0B482B000235FE095
:1032380086685F000325BD4026EA0506CD68BD40C7
:1032480035438560466826EA04064D68C5F30014D0
:103258009C40344344605AE0DD08083550F8257036
:1032680003F00704A6000F24B44027EA04070C69FA
:10327800B4403C4340F825405DE0092400E00024C8
:10328800B4403C4302355F4E46F825404FF0B04409
:103298002568D44325EA02064F6817F4801F01D039
:1032A80042EA05064FF0B0452E606E6804EA06054E
:1032B8004F6817F4001F01D042EA06054FF0B046E8
:1032C8007560514D6D6804EA05064F6817F4003FB4
:1032D80001D042EA05064C4D6E602D682C404E68C0
:1032E80016F4803F01D042EA0504474A14600133CE
:1032F8000A6832FA03F400F0828001249C402240DC
:10330800F5D04D6805F00305013D012D90D94C68B5
:1033180004F00304032C09D0C5685E000324B440FC
:1033280025EA04058C68B4402C43C4604C6804F05A
:103338000304022C90D005685E000324B44025EAFB
:1033480004054C6804F00304B4402C4304604C6842
:1033580014F4403FCBD02D4CD4F8F45045F002057E
:10336800C4F8F450D4F8F44004F002040194019C29
:103378009D08AE1C234C54F8267003F00304A600E5
:103388000F24B44027EA0407214CA0423FF477AF4A
:1033980004F58064A04222D004F58064A04220D0C5
:1033A80004F58064A0421ED004F58064A0421CD0BD
:1033B80004F58064A0421AD004F58064A04218D0B5
:1033C80004F58064A04216D004F58064A04214D0AD
:1033D80004F58064A0423FF450AF0A2450E701246A
:1033E8004EE702244CE703244AE7042448E705246F
:1033F80046E7062444E7072442E7082440E702B0EA
:10340800F0BC70470004005880000058004402587F
:10341800000002580AB18161704709048161704750
:103428002030054B53F82020044B9A4201D001204C
:1034380070470020704700BF0064025800030080F6
:1034480041F44071014B43F8201070470064025862
:1034580038B50446224BDB6803F00703062B07D078
:103468001F4BDB6803F03F03834236D0012038BD91
:103478001B4AD36823F03F030343D36000F094F85A
:103488000546174B5B6813F4005F07D100F08CF812
:10349800431BB3F57A7FF4D90120E8E72E2C18BF37
:1034A8001E2C08D02D2C14BF002301231D2C02D064
:1034B8000BB90020DBE700F077F80446084BDB681F
:1034C80013F4803F07D100F06FF8001BB0F57A7F46
:1034D800F4D90120CBE70020C9E70020C7E700BFE7
:1034E80000480258104B1B780BB90120704710B5E3
:1034F80004464FF47A70B0FBF3F30C4A1068B0FB43
:10350800F3F0FDF759FA68B90F2C01D901200AE048
:10351800002221464FF0FF30FDF71CFA044B1C60D7
:10352800002000E0012010BD00000020080000205D
:103538000400002010B50320FDF7FAF9FEF718FB88
:103548000F498B69C3F303230E4AD35C03F01F03AF
:10355800D8408B6903F00F03D35C03F01F0320FAF4
:1035680003F3094A1360094B18600F20FFF7BAFFED
:1035780010B10124204610BD0446FDF76BF9F9E7A8
:1035880000440258D03700080C0000200800002032
:10359800034B1B78034A11680B441360704700BF44
:1035A80000000020C0000020014B1868704700BFD1
:1035B800C000002038B50446FFF7F6FF0546B4F111
:1035C800FF3F02D0044B1B781C44FFF7EDFF401B64
:1035D800A042FAD338BD00BF00000020014B186894
:1035E800000C70470010005C2B4BD3F8882042F485
:1035F8007002C3F888201A6942F010021A61274B3A
:103608001B6803F00F03062B06D8244A136823F01F
:103618000F0343F007031360214B1A6842F00102BD
:103628001A6000221A6119681E4A0A401A601B4B68
:103638001B6813F0080F06D0184A136823F00F030D
:1036480043F007031360164B00229A61DA611A628D
:10365800154999621549D962154919635A639963DD
:10366800DA6319645A64196821F4802119601A66AA
:10367800104A536A43F4804353620F4B1A680F4B46
:103688001340B3F1005F02D20D4B01221A600D4BBB
:1036980043F2D2021A60704700ED00E000200052A9
:1036A800004402587FEDF6EA000202020000FF0122
:1036B80080020101C00000580010005C0000FFFFFC
:1036C8000881005100400052DFF834D0FFF78CFF2A
:1036D8000C480D490D4A002302E0D458C450043365
:1036E800C4188C42F9D30A4A0A4C002301E013603B
:1036F8000432A242FBD300F011F8FDF759F87047E5
:10370800000002200000002010000020F037000810
:1037180010000020C4000020FEE7000070B50D4D29
:103728000D4C641BA4100026A64209D10B4D0C4C6D
:1037380000F020F8641BA4100026A64205D170BD35
:1037480055F8043B98470136EEE755F8043B98478F
:103758000136F2E7E8370008E8370008E8370008DC
:10376800EC37000802440346934200D1704703F83F
:10377800011BF9E7F8B500BFF8BC08BC9E467047C6
:0C378800F8B500BFF8BC08BC9E467047B6
:1037940048656C6C6F20576F726C64202121210D79
:1037A4000A000000010002000400060008000A00EC
:1037B4000C001000200040008000000108040204F6
:1037C40008010101010101030701000000000000DC
:0C37D400010203040102030406070809B7
:0837E00028CBFF7F010000006F
:0437E800BD02000816
:0437EC009902000836
:1037F00001000000100000000090D0030090D003F2
:04000005080036D1E8
:00000001FF
