:020000040810E2
:100000000080041031081008490310084B03100841
:100010004D0310084F0310085103100800000000A2
:100020000000000000000000000000005303100862
:10003000550310080000000057031008590310086A
:10004000810810088108100881081008810810082C
:10005000810810088108100881081008810810081C
:10006000810810088108100881081008810810080C
:1000700081081008810810088108100881081008FC
:1000800081081008810810088108100881081008EC
:1000900081081008810810088108100881081008DC
:1000A00081081008810810088108100881081008CC
:1000B00081081008810810088108100881081008BC
:1000C00081081008810810088108100881081008AC
:1000D000810810088108100881081008810810089C
:1000E000810810088108100800000000810810082D
:1000F000810810088108100881081008810810087C
:10010000810810088108100881081008810810086B
:10011000810810088108100881081008810810085B
:10012000810810088108100881081008810810084B
:10013000810810088108100881081008810810083B
:10014000810810088108100800000000000000006D
:10015000810810088108100881081008810810081B
:10016000810810088108100881081008810810080B
:10017000810810088108100881081008000000009C
:1001800081081008810810088108100881081008EB
:1001900081081008810810088108100881081008DB
:1001A00081081008810810088108100881081008CB
:1001B00081081008810810088108100881081008BB
:1001C00081081008810810088108100881081008AB
:1001D000810810088108100881081008810810089B
:1001E000810810088108100881081008810810088B
:1001F000810810088108100881081008810810087B
:10020000810810088108100881081008810810086A
:10021000810810088108100881081008810810085A
:10022000810810088108100881081008810810084A
:10023000810810088108100881081008810810083A
:10024000810810088108100881081008810810082A
:10025000810810088108100881081008810810081A
:10026000810810088108100881081008810810080A
:1002700081081008810810088108100881081008FA
:10028000810810088108100881081008000000008B
:08029000810810088108100824
:1002980010B5054C237833B9044B13B10448AFF3B8
:1002A80000800123237010BD100000100000000022
:1002B800CC08100808B5034B1BB103490348AFF33A
:1002C800008008BD0000000014000010CC081008D1
:1002D80000B583B0174BD3F8E02042F00072C3F8A2
:1002E800E020D3F8E03003F000730193019B012074
:1002F80000F0A4F900F002FA01220221002000F027
:10030800A5F90D4B1B68C3F30313072B09D00B4A40
:10031800D2F8143143F00103C2F8143100F020FA86
:10032800FEE7064AD2F8043143F00103C2F804316B
:10033800F4E700BF0044025800ED00E000640258F2
:10034800FEE7FEE7FEE7FEE7FEE770477047704707
:1003580008B500F04FFA08BD82B0074BD3F8F42077
:1003680042F00202C3F8F420D3F8F43003F0020399
:100378000193019B02B07047004402580649CB68BC
:1003880023F4E0631B041B0C000200F4E060034349
:10039800024A1A43CA60704700ED00E00000FA05FF
:1003A80030B4154BDB68C3F30223C3F10704042CF4
:1003B80028BF04241D1D062D14D9033B4FF0FF351B
:1003C80005FA04F421EA0401994005FA03F322EA44
:1003D80003031943002807DB0901C9B2074B195465
:1003E80030BC70470023E9E700F00F000901C9B2EB
:1003F800034B1954F4E700BF00ED00E000E400E00F
:1004080014ED00E00138B0F1807F0AD2064B586045
:10041800064AF02182F823100020986007221A600B
:1004280070470120704700BF10E000E000ED00E0D9
:10043800044B1B68C3F30313072B01D0012070473B
:100448000320704700ED00E0744B1B6903F038038C
:10045800102B00F0DF80182B10D00BB170487047BC
:100468006E4B1B6813F0200F00F0D6806B4B18689A
:10047800C0F3C1006B4B23FA00F0704710B4674A11
:10048800916A01F00301946AC4F30510D36A03F07A
:100498000103526BC2F3CC0203FB02F307EE903A5E
:1004A800F8EE677A14F47C7F00F09480012966D016
:1004B800022900F09280E1B107EE100AF8EE476ACF
:1004C8009FED596A86EE267A544B1B6BC3F30803DB
:1004D80006EE903AF8EE666A9FED546A67EE867A01
:1004E80076EEA77AF7EE006A77EEA67A27EE277AF5
:1004F80061E04A4B1B6813F0200F23D047490A6874
:10050800C2F3C102474BD34007EE103AF8EE476AF0
:1005180007EE100AB8EE476A86EE867A0B6BC3F3CD
:10052800080306EE903AF8EE666A9FED406A67EEB9
:10053800867A76EEA77AF7EE006A77EEA67A27EE45
:10054800277A38E007EE100AF8EE476A9FED386A16
:1005580086EE267A314B1B6BC3F3080306EE903AFE
:10056800F8EE666A9FED316A67EE867A76EEA77ACC
:10057800F7EE006A77EEA67A27EE277A1BE007EEF9
:10058800100AF8EE476A9FED286A86EE267A234B12
:100598001B6BC3F3080306EE903AF8EE666A9FED0C
:1005A800236A67EE867A76EEA77AF7EE006A77EE28
:1005B800A67A27EE277A194B1B6BC3F34623013320
:1005C80007EE903AF8EE677AC7EE276AFCEEE67A0D
:1005D80017EE900A5DF8044B704707EE100AF8EE24
:1005E800476A9FED146A86EE267A0C4B1B6BC3F3A1
:1005F800080306EE903AF8EE666A9FED0C6A67EE1D
:10060800867A76EEA77AF7EE006A77EEA67A27EE74
:10061800277AD0E7084870470248704700440258D4
:1006280000093D000090D0030024744A00000039FE
:100638000024744C20BCBE4B40787D01024A1368EC
:1006480003431360704700BF1065025838B50D4664
:10065800284C236823F00103034323605AB1012A7D
:1006680025D0FFF7E5FE03283ED0224A536923F040
:100678000403536138BDFFF7DBFE0328FAD1236971
:1006880023F0010323611C4A136943F00403136137
:10069800BFF34F8FBFF36F8F012D06D020BF164ACF
:1006A800136923F004031361E4E730BFF7E7FFF7AA
:1006B800BFFE0128DED10F4A536923F002035361BC
:1006C8000D4A136943F004031361BFF34F8FBFF35F
:1006D8006F8F012D06D020BF074A136923F004034A
:1006E8001361C7E730BFF7E7024A136923F0040331
:1006F8001361BFE70048025800ED00E008B5FFF7B6
:1007080097FE032802D040BF20BF08BD20BFFCE7EA
:10071800104B1B780BB90120704710B504464FF4F5
:100728007A70B0FBF3F30C4A1068B0FBF3F0FFF7F4
:1007380069FE68B90F2C01D901200AE00022214680
:100748004FF0FF30FFF72CFE044B1C60002000E048
:10075800012010BD00000010080000100400001067
:1007680010B582B01D4CD4F8D83043F48043C4F897
:10077800D830D4F8D83003F480430193019B184A49
:100788001168184B0B4043F401431360136843F09E
:10079800010313600320FFF7F1FDFFF755FEA3697E
:1007A800C3F30323104AD35C03F01F03D840A369A3
:1007B80003F00F03D35C03F01F03D8400B4B186002
:1007C8000B4B18600F20FFF7A3FF18B10124204638
:1007D80002B010BD0446FFF7BFFDF8E70044025819
:1007E80000440240FF00F0FFE40810080C0000106D
:1007F80008000010034B1B78034A11680B44136070
:10080800704700BF000000102C000010054BD3F803
:10081800882042F47002C3F888201A6942F0100256
:100828001A61704700ED00E0DFF834D0FFF7EEFF03
:100838000C480D490D4A002302E0D458C450043333
:10084800C4188C42F9D30A4A0A4C002301E0136009
:100858000432A242FBD300F011F8FFF739FD7047CC
:10086800008004100000001010000010FC081008A0
:100878001000001030000010FEE7000070B50D4DAC
:100888000D4C641BA4100026A64209D10B4D0C4C3C
:1008980000F018F8641BA4100026A64205D170BD0C
:1008A80055F8043B98470136EEE755F8043B98475E
:1008B8000136F2E7F4081008F4081008F4081008E4
:1008C800F8081008F8B500BFF8BC08BC9E46704789
:0C08D800F8B500BFF8BC08BC9E46704795
:1008E40000000000010203040102030406070809D2
:0408F400BD02100829
:0408F8009902100849
:1008FC0001000000100000000090D0030090D00315
:0400000508100831A6
:00000001FF
